{
	"contracts/Escrow.sol": {
		"harshEscrowNYU": {
			"abi": [
				{
					"inputs": [],
					"name": "alice",
					"outputs": [
						{
							"internalType": "address payable",
							"name": "",
							"type": "address"
						}
					],
					"stateMutability": "view",
					"type": "function"
				},
				{
					"inputs": [],
					"name": "bob",
					"outputs": [
						{
							"internalType": "address payable",
							"name": "",
							"type": "address"
						}
					],
					"stateMutability": "view",
					"type": "function"
				},
				{
					"inputs": [],
					"name": "deposit",
					"outputs": [],
					"stateMutability": "payable",
					"type": "function"
				},
				{
					"inputs": [],
					"name": "depositAmount",
					"outputs": [
						{
							"internalType": "uint256",
							"name": "",
							"type": "uint256"
						}
					],
					"stateMutability": "view",
					"type": "function"
				},
				{
					"inputs": [],
					"name": "depositTime",
					"outputs": [
						{
							"internalType": "uint256",
							"name": "",
							"type": "uint256"
						}
					],
					"stateMutability": "view",
					"type": "function"
				},
				{
					"inputs": [],
					"name": "getBalance",
					"outputs": [
						{
							"internalType": "uint256",
							"name": "",
							"type": "uint256"
						}
					],
					"stateMutability": "view",
					"type": "function"
				},
				{
					"inputs": [],
					"name": "isFunded",
					"outputs": [
						{
							"internalType": "bool",
							"name": "",
							"type": "bool"
						}
					],
					"stateMutability": "view",
					"type": "function"
				},
				{
					"inputs": [],
					"name": "withdraw",
					"outputs": [],
					"stateMutability": "nonpayable",
					"type": "function"
				}
			],
			"devdoc": {
				"kind": "dev",
				"methods": {},
				"version": 1
			},
			"evm": {
				"assembly": "    /* \"contracts/Escrow.sol\":159:1615  contract harshEscrowNYU {... */\n  mstore(0x40, 0x80)\n  callvalue\n  dup1\n  iszero\n  tag_1\n  jumpi\n  0x00\n  dup1\n  revert\ntag_1:\n  pop\n  dataSize(sub_0)\n  dup1\n  dataOffset(sub_0)\n  0x00\n  codecopy\n  0x00\n  return\nstop\n\nsub_0: assembly {\n        /* \"contracts/Escrow.sol\":159:1615  contract harshEscrowNYU {... */\n      mstore(0x40, 0x80)\n      jumpi(tag_1, lt(calldatasize, 0x04))\n      shr(0xe0, calldataload(0x00))\n      dup1\n      0x7c654303\n      gt\n      tag_10\n      jumpi\n      dup1\n      0x7c654303\n      eq\n      tag_6\n      jumpi\n      dup1\n      0xc09cec77\n      eq\n      tag_7\n      jumpi\n      dup1\n      0xd0e30db0\n      eq\n      tag_8\n      jumpi\n      dup1\n      0xfb47e3a2\n      eq\n      tag_9\n      jumpi\n      jump(tag_1)\n    tag_10:\n      dup1\n      0x12065fe0\n      eq\n      tag_2\n      jumpi\n      dup1\n      0x3ccfd60b\n      eq\n      tag_3\n      jumpi\n      dup1\n      0x419759f5\n      eq\n      tag_4\n      jumpi\n      dup1\n      0x5e8a626e\n      eq\n      tag_5\n      jumpi\n    tag_1:\n      0x00\n      dup1\n      revert\n        /* \"contracts/Escrow.sol\":1516:1613  function getBalance() public view returns (uint256) {... */\n    tag_2:\n      callvalue\n      dup1\n      iszero\n      tag_11\n      jumpi\n      0x00\n      dup1\n      revert\n    tag_11:\n      pop\n      tag_12\n      tag_13\n      jump\t// in\n    tag_12:\n      mload(0x40)\n      tag_14\n      swap2\n      swap1\n      tag_15\n      jump\t// in\n    tag_14:\n      mload(0x40)\n      dup1\n      swap2\n      sub\n      swap1\n      return\n        /* \"contracts/Escrow.sol\":858:1511  function withdraw() external {... */\n    tag_3:\n      callvalue\n      dup1\n      iszero\n      tag_16\n      jumpi\n      0x00\n      dup1\n      revert\n    tag_16:\n      pop\n      tag_17\n      tag_18\n      jump\t// in\n    tag_17:\n      stop\n        /* \"contracts/Escrow.sol\":377:421  uint256 public constant depositAmount = 1e15 */\n    tag_4:\n      callvalue\n      dup1\n      iszero\n      tag_19\n      jumpi\n      0x00\n      dup1\n      revert\n    tag_19:\n      pop\n      tag_20\n      tag_21\n      jump\t// in\n    tag_20:\n      mload(0x40)\n      tag_22\n      swap2\n      swap1\n      tag_15\n      jump\t// in\n    tag_22:\n      mload(0x40)\n      dup1\n      swap2\n      sub\n      swap1\n      return\n        /* \"contracts/Escrow.sol\":318:344  uint256 public depositTime */\n    tag_5:\n      callvalue\n      dup1\n      iszero\n      tag_23\n      jumpi\n      0x00\n      dup1\n      revert\n    tag_23:\n      pop\n      tag_24\n      tag_25\n      jump\t// in\n    tag_24:\n      mload(0x40)\n      tag_26\n      swap2\n      swap1\n      tag_15\n      jump\t// in\n    tag_26:\n      mload(0x40)\n      dup1\n      swap2\n      sub\n      swap1\n      return\n        /* \"contracts/Escrow.sol\":350:370  bool public isFunded */\n    tag_6:\n      callvalue\n      dup1\n      iszero\n      tag_27\n      jumpi\n      0x00\n      dup1\n      revert\n    tag_27:\n      pop\n      tag_28\n      tag_29\n      jump\t// in\n    tag_28:\n      mload(0x40)\n      tag_30\n      swap2\n      swap1\n      tag_31\n      jump\t// in\n    tag_30:\n      mload(0x40)\n      dup1\n      swap2\n      sub\n      swap1\n      return\n        /* \"contracts/Escrow.sol\":223:312  address payable public constant bob = payable(0xECf74C19215C8DD2BAF16AD3a6eC1A25386d813c) */\n    tag_7:\n      callvalue\n      dup1\n      iszero\n      tag_32\n      jumpi\n      0x00\n      dup1\n      revert\n    tag_32:\n      pop\n      tag_33\n      tag_34\n      jump\t// in\n    tag_33:\n      mload(0x40)\n      tag_35\n      swap2\n      swap1\n      tag_36\n      jump\t// in\n    tag_35:\n      mload(0x40)\n      dup1\n      swap2\n      sub\n      swap1\n      return\n        /* \"contracts/Escrow.sol\":479:822  function deposit() external payable {... */\n    tag_8:\n      tag_37\n      tag_38\n      jump\t// in\n    tag_37:\n      stop\n        /* \"contracts/Escrow.sol\":189:217  address payable public alice */\n    tag_9:\n      callvalue\n      dup1\n      iszero\n      tag_39\n      jumpi\n      0x00\n      dup1\n      revert\n    tag_39:\n      pop\n      tag_40\n      tag_41\n      jump\t// in\n    tag_40:\n      mload(0x40)\n      tag_42\n      swap2\n      swap1\n      tag_36\n      jump\t// in\n    tag_42:\n      mload(0x40)\n      dup1\n      swap2\n      sub\n      swap1\n      return\n        /* \"contracts/Escrow.sol\":1516:1613  function getBalance() public view returns (uint256) {... */\n    tag_13:\n        /* \"contracts/Escrow.sol\":1559:1566  uint256 */\n      0x00\n        /* \"contracts/Escrow.sol\":1585:1606  address(this).balance */\n      selfbalance\n        /* \"contracts/Escrow.sol\":1578:1606  return address(this).balance */\n      swap1\n      pop\n        /* \"contracts/Escrow.sol\":1516:1613  function getBalance() public view returns (uint256) {... */\n      swap1\n      jump\t// out\n        /* \"contracts/Escrow.sol\":858:1511  function withdraw() external {... */\n    tag_18:\n        /* \"contracts/Escrow.sol\":269:311  0xECf74C19215C8DD2BAF16AD3a6eC1A25386d813c */\n      0xecf74c19215c8dd2baf16ad3a6ec1a25386d813c\n        /* \"contracts/Escrow.sol\":901:918  msg.sender != bob */\n      0xffffffffffffffffffffffffffffffffffffffff\n      and\n        /* \"contracts/Escrow.sol\":901:911  msg.sender */\n      caller\n        /* \"contracts/Escrow.sol\":901:918  msg.sender != bob */\n      0xffffffffffffffffffffffffffffffffffffffff\n      and\n      eq\n        /* \"contracts/Escrow.sol\":897:983  if (msg.sender != bob) {... */\n      tag_45\n      jumpi\n        /* \"contracts/Escrow.sol\":934:972  revert(\"Only Bob can withdraw funds!\") */\n      mload(0x40)\n      0x08c379a000000000000000000000000000000000000000000000000000000000\n      dup2\n      mstore\n      0x04\n      add\n      tag_46\n      swap1\n      tag_47\n      jump\t// in\n    tag_46:\n      mload(0x40)\n      dup1\n      swap2\n      sub\n      swap1\n      revert\n        /* \"contracts/Escrow.sol\":897:983  if (msg.sender != bob) {... */\n    tag_45:\n        /* \"contracts/Escrow.sol\":997:1005  isFunded */\n      0x02\n      0x00\n      swap1\n      sload\n      swap1\n      0x0100\n      exp\n      swap1\n      div\n      0xff\n      and\n        /* \"contracts/Escrow.sol\":992:1065  if (!isFunded) {... */\n      tag_48\n      jumpi\n        /* \"contracts/Escrow.sol\":1021:1054  revert(\"Contract is not funded!\") */\n      mload(0x40)\n      0x08c379a000000000000000000000000000000000000000000000000000000000\n      dup2\n      mstore\n      0x04\n      add\n      tag_49\n      swap1\n      tag_50\n      jump\t// in\n    tag_49:\n      mload(0x40)\n      dup1\n      swap2\n      sub\n      swap1\n      revert\n        /* \"contracts/Escrow.sol\":992:1065  if (!isFunded) {... */\n    tag_48:\n        /* \"contracts/Escrow.sol\":1110:1116  1 days */\n      0x015180\n        /* \"contracts/Escrow.sol\":1096:1107  depositTime */\n      sload(0x01)\n        /* \"contracts/Escrow.sol\":1096:1116  depositTime + 1 days */\n      tag_51\n      swap2\n      swap1\n      tag_52\n      jump\t// in\n    tag_51:\n        /* \"contracts/Escrow.sol\":1078:1093  block.timestamp */\n      timestamp\n        /* \"contracts/Escrow.sol\":1078:1116  block.timestamp < depositTime + 1 days */\n      lt\n        /* \"contracts/Escrow.sol\":1074:1200  if (block.timestamp < depositTime + 1 days) {... */\n      iszero\n      tag_53\n      jumpi\n        /* \"contracts/Escrow.sol\":1132:1189  revert(\"Withdrawal not allowed yet. Wait for min 1 day!\") */\n      mload(0x40)\n      0x08c379a000000000000000000000000000000000000000000000000000000000\n      dup2\n      mstore\n      0x04\n      add\n      tag_54\n      swap1\n      tag_55\n      jump\t// in\n    tag_54:\n      mload(0x40)\n      dup1\n      swap2\n      sub\n      swap1\n      revert\n        /* \"contracts/Escrow.sol\":1074:1200  if (block.timestamp < depositTime + 1 days) {... */\n    tag_53:\n        /* \"contracts/Escrow.sol\":1209:1224  uint256 balance */\n      0x00\n        /* \"contracts/Escrow.sol\":1227:1248  address(this).balance */\n      selfbalance\n        /* \"contracts/Escrow.sol\":1209:1248  uint256 balance = address(this).balance */\n      swap1\n      pop\n        /* \"contracts/Escrow.sol\":1273:1274  0 */\n      0x00\n        /* \"contracts/Escrow.sol\":1262:1269  balance */\n      dup2\n        /* \"contracts/Escrow.sol\":1262:1274  balance == 0 */\n      sub\n        /* \"contracts/Escrow.sol\":1258:1340  if (balance == 0) {... */\n      tag_56\n      jumpi\n        /* \"contracts/Escrow.sol\":1290:1329  revert(\"Not enough funds to withdraw!\") */\n      mload(0x40)\n      0x08c379a000000000000000000000000000000000000000000000000000000000\n      dup2\n      mstore\n      0x04\n      add\n      tag_57\n      swap1\n      tag_58\n      jump\t// in\n    tag_57:\n      mload(0x40)\n      dup1\n      swap2\n      sub\n      swap1\n      revert\n        /* \"contracts/Escrow.sol\":1258:1340  if (balance == 0) {... */\n    tag_56:\n        /* \"contracts/Escrow.sol\":1351:1363  bool success */\n      0x00\n        /* \"contracts/Escrow.sol\":269:311  0xECf74C19215C8DD2BAF16AD3a6eC1A25386d813c */\n      0xecf74c19215c8dd2baf16ad3a6ec1a25386d813c\n        /* \"contracts/Escrow.sol\":1369:1377  bob.call */\n      0xffffffffffffffffffffffffffffffffffffffff\n      and\n        /* \"contracts/Escrow.sol\":1385:1392  balance */\n      dup3\n        /* \"contracts/Escrow.sol\":1369:1397  bob.call{value: balance}(\"\") */\n      mload(0x40)\n      tag_59\n      swap1\n      tag_60\n      jump\t// in\n    tag_59:\n      0x00\n      mload(0x40)\n      dup1\n      dup4\n      sub\n      dup2\n      dup6\n      dup8\n      gas\n      call\n      swap3\n      pop\n      pop\n      pop\n      returndatasize\n      dup1\n      0x00\n      dup2\n      eq\n      tag_63\n      jumpi\n      mload(0x40)\n      swap2\n      pop\n      and(add(returndatasize, 0x3f), not(0x1f))\n      dup3\n      add\n      0x40\n      mstore\n      returndatasize\n      dup3\n      mstore\n      returndatasize\n      0x00\n      0x20\n      dup5\n      add\n      returndatacopy\n      jump(tag_62)\n    tag_63:\n      0x60\n      swap2\n      pop\n    tag_62:\n      pop\n        /* \"contracts/Escrow.sol\":1350:1397  (bool success, ) = bob.call{value: balance}(\"\") */\n      pop\n      swap1\n      pop\n        /* \"contracts/Escrow.sol\":1412:1419  success */\n      dup1\n        /* \"contracts/Escrow.sol\":1407:1479  if (!success) {... */\n      tag_64\n      jumpi\n        /* \"contracts/Escrow.sol\":1435:1468  revert(\"Failed to send Ethereum\") */\n      mload(0x40)\n      0x08c379a000000000000000000000000000000000000000000000000000000000\n      dup2\n      mstore\n      0x04\n      add\n      tag_65\n      swap1\n      tag_66\n      jump\t// in\n    tag_65:\n      mload(0x40)\n      dup1\n      swap2\n      sub\n      swap1\n      revert\n        /* \"contracts/Escrow.sol\":1407:1479  if (!success) {... */\n    tag_64:\n        /* \"contracts/Escrow.sol\":1499:1504  false */\n      0x00\n        /* \"contracts/Escrow.sol\":1488:1496  isFunded */\n      0x02\n      0x00\n        /* \"contracts/Escrow.sol\":1488:1504  isFunded = false */\n      0x0100\n      exp\n      dup2\n      sload\n      dup2\n      0xff\n      mul\n      not\n      and\n      swap1\n      dup4\n      iszero\n      iszero\n      mul\n      or\n      swap1\n      sstore\n      pop\n        /* \"contracts/Escrow.sol\":887:1511  {... */\n      pop\n      pop\n        /* \"contracts/Escrow.sol\":858:1511  function withdraw() external {... */\n      jump\t// out\n        /* \"contracts/Escrow.sol\":377:421  uint256 public constant depositAmount = 1e15 */\n    tag_21:\n        /* \"contracts/Escrow.sol\":417:421  1e15 */\n      0x038d7ea4c68000\n        /* \"contracts/Escrow.sol\":377:421  uint256 public constant depositAmount = 1e15 */\n      dup2\n      jump\t// out\n        /* \"contracts/Escrow.sol\":318:344  uint256 public depositTime */\n    tag_25:\n      sload(0x01)\n      dup2\n      jump\t// out\n        /* \"contracts/Escrow.sol\":350:370  bool public isFunded */\n    tag_29:\n      0x02\n      0x00\n      swap1\n      sload\n      swap1\n      0x0100\n      exp\n      swap1\n      div\n      0xff\n      and\n      dup2\n      jump\t// out\n        /* \"contracts/Escrow.sol\":223:312  address payable public constant bob = payable(0xECf74C19215C8DD2BAF16AD3a6eC1A25386d813c) */\n    tag_34:\n        /* \"contracts/Escrow.sol\":269:311  0xECf74C19215C8DD2BAF16AD3a6eC1A25386d813c */\n      0xecf74c19215c8dd2baf16ad3a6ec1a25386d813c\n        /* \"contracts/Escrow.sol\":223:312  address payable public constant bob = payable(0xECf74C19215C8DD2BAF16AD3a6eC1A25386d813c) */\n      dup2\n      jump\t// out\n        /* \"contracts/Escrow.sol\":479:822  function deposit() external payable {... */\n    tag_38:\n        /* \"contracts/Escrow.sol\":529:537  isFunded */\n      0x02\n      0x00\n      swap1\n      sload\n      swap1\n      0x0100\n      exp\n      swap1\n      div\n      0xff\n      and\n        /* \"contracts/Escrow.sol\":525:602  if (isFunded) {... */\n      iszero\n      tag_68\n      jumpi\n        /* \"contracts/Escrow.sol\":553:591  revert(\"Already funded the contract!\") */\n      mload(0x40)\n      0x08c379a000000000000000000000000000000000000000000000000000000000\n      dup2\n      mstore\n      0x04\n      add\n      tag_69\n      swap1\n      tag_70\n      jump\t// in\n    tag_69:\n      mload(0x40)\n      dup1\n      swap2\n      sub\n      swap1\n      revert\n        /* \"contracts/Escrow.sol\":525:602  if (isFunded) {... */\n    tag_68:\n        /* \"contracts/Escrow.sol\":417:421  1e15 */\n      0x038d7ea4c68000\n        /* \"contracts/Escrow.sol\":615:624  msg.value */\n      callvalue\n        /* \"contracts/Escrow.sol\":615:641  msg.value != depositAmount */\n      eq\n        /* \"contracts/Escrow.sol\":611:715  if (msg.value != depositAmount) {... */\n      tag_71\n      jumpi\n        /* \"contracts/Escrow.sol\":657:704  revert(\"Deposit amount not exactly 0.001 ETH!\") */\n      mload(0x40)\n      0x08c379a000000000000000000000000000000000000000000000000000000000\n      dup2\n      mstore\n      0x04\n      add\n      tag_72\n      swap1\n      tag_73\n      jump\t// in\n    tag_72:\n      mload(0x40)\n      dup1\n      swap2\n      sub\n      swap1\n      revert\n        /* \"contracts/Escrow.sol\":611:715  if (msg.value != depositAmount) {... */\n    tag_71:\n        /* \"contracts/Escrow.sol\":740:750  msg.sender */\n      caller\n        /* \"contracts/Escrow.sol\":724:729  alice */\n      0x00\n      dup1\n        /* \"contracts/Escrow.sol\":724:751  alice = payable(msg.sender) */\n      0x0100\n      exp\n      dup2\n      sload\n      dup2\n      0xffffffffffffffffffffffffffffffffffffffff\n      mul\n      not\n      and\n      swap1\n      dup4\n      0xffffffffffffffffffffffffffffffffffffffff\n      and\n      mul\n      or\n      swap1\n      sstore\n      pop\n        /* \"contracts/Escrow.sol\":775:790  block.timestamp */\n      timestamp\n        /* \"contracts/Escrow.sol\":761:772  depositTime */\n      0x01\n        /* \"contracts/Escrow.sol\":761:790  depositTime = block.timestamp */\n      dup2\n      swap1\n      sstore\n      pop\n        /* \"contracts/Escrow.sol\":811:815  true */\n      0x01\n        /* \"contracts/Escrow.sol\":800:808  isFunded */\n      0x02\n      0x00\n        /* \"contracts/Escrow.sol\":800:815  isFunded = true */\n      0x0100\n      exp\n      dup2\n      sload\n      dup2\n      0xff\n      mul\n      not\n      and\n      swap1\n      dup4\n      iszero\n      iszero\n      mul\n      or\n      swap1\n      sstore\n      pop\n        /* \"contracts/Escrow.sol\":479:822  function deposit() external payable {... */\n      jump\t// out\n        /* \"contracts/Escrow.sol\":189:217  address payable public alice */\n    tag_41:\n      0x00\n      dup1\n      sload\n      swap1\n      0x0100\n      exp\n      swap1\n      div\n      0xffffffffffffffffffffffffffffffffffffffff\n      and\n      dup2\n      jump\t// out\n        /* \"#utility.yul\":7:84   */\n    tag_74:\n        /* \"#utility.yul\":44:51   */\n      0x00\n        /* \"#utility.yul\":73:78   */\n      dup2\n        /* \"#utility.yul\":62:78   */\n      swap1\n      pop\n        /* \"#utility.yul\":7:84   */\n      swap2\n      swap1\n      pop\n      jump\t// out\n        /* \"#utility.yul\":90:208   */\n    tag_75:\n        /* \"#utility.yul\":177:201   */\n      tag_103\n        /* \"#utility.yul\":195:200   */\n      dup2\n        /* \"#utility.yul\":177:201   */\n      tag_74\n      jump\t// in\n    tag_103:\n        /* \"#utility.yul\":172:175   */\n      dup3\n        /* \"#utility.yul\":165:202   */\n      mstore\n        /* \"#utility.yul\":90:208   */\n      pop\n      pop\n      jump\t// out\n        /* \"#utility.yul\":214:436   */\n    tag_15:\n        /* \"#utility.yul\":307:311   */\n      0x00\n        /* \"#utility.yul\":345:347   */\n      0x20\n        /* \"#utility.yul\":334:343   */\n      dup3\n        /* \"#utility.yul\":330:348   */\n      add\n        /* \"#utility.yul\":322:348   */\n      swap1\n      pop\n        /* \"#utility.yul\":358:429   */\n      tag_105\n        /* \"#utility.yul\":426:427   */\n      0x00\n        /* \"#utility.yul\":415:424   */\n      dup4\n        /* \"#utility.yul\":411:428   */\n      add\n        /* \"#utility.yul\":402:408   */\n      dup5\n        /* \"#utility.yul\":358:429   */\n      tag_75\n      jump\t// in\n    tag_105:\n        /* \"#utility.yul\":214:436   */\n      swap3\n      swap2\n      pop\n      pop\n      jump\t// out\n        /* \"#utility.yul\":442:532   */\n    tag_76:\n        /* \"#utility.yul\":476:483   */\n      0x00\n        /* \"#utility.yul\":519:524   */\n      dup2\n        /* \"#utility.yul\":512:525   */\n      iszero\n        /* \"#utility.yul\":505:526   */\n      iszero\n        /* \"#utility.yul\":494:526   */\n      swap1\n      pop\n        /* \"#utility.yul\":442:532   */\n      swap2\n      swap1\n      pop\n      jump\t// out\n        /* \"#utility.yul\":538:647   */\n    tag_77:\n        /* \"#utility.yul\":619:640   */\n      tag_108\n        /* \"#utility.yul\":634:639   */\n      dup2\n        /* \"#utility.yul\":619:640   */\n      tag_76\n      jump\t// in\n    tag_108:\n        /* \"#utility.yul\":614:617   */\n      dup3\n        /* \"#utility.yul\":607:641   */\n      mstore\n        /* \"#utility.yul\":538:647   */\n      pop\n      pop\n      jump\t// out\n        /* \"#utility.yul\":653:863   */\n    tag_31:\n        /* \"#utility.yul\":740:744   */\n      0x00\n        /* \"#utility.yul\":778:780   */\n      0x20\n        /* \"#utility.yul\":767:776   */\n      dup3\n        /* \"#utility.yul\":763:781   */\n      add\n        /* \"#utility.yul\":755:781   */\n      swap1\n      pop\n        /* \"#utility.yul\":791:856   */\n      tag_110\n        /* \"#utility.yul\":853:854   */\n      0x00\n        /* \"#utility.yul\":842:851   */\n      dup4\n        /* \"#utility.yul\":838:855   */\n      add\n        /* \"#utility.yul\":829:835   */\n      dup5\n        /* \"#utility.yul\":791:856   */\n      tag_77\n      jump\t// in\n    tag_110:\n        /* \"#utility.yul\":653:863   */\n      swap3\n      swap2\n      pop\n      pop\n      jump\t// out\n        /* \"#utility.yul\":869:995   */\n    tag_78:\n        /* \"#utility.yul\":906:913   */\n      0x00\n        /* \"#utility.yul\":946:988   */\n      0xffffffffffffffffffffffffffffffffffffffff\n        /* \"#utility.yul\":939:944   */\n      dup3\n        /* \"#utility.yul\":935:989   */\n      and\n        /* \"#utility.yul\":924:989   */\n      swap1\n      pop\n        /* \"#utility.yul\":869:995   */\n      swap2\n      swap1\n      pop\n      jump\t// out\n        /* \"#utility.yul\":1001:1105   */\n    tag_79:\n        /* \"#utility.yul\":1046:1053   */\n      0x00\n        /* \"#utility.yul\":1075:1099   */\n      tag_113\n        /* \"#utility.yul\":1093:1098   */\n      dup3\n        /* \"#utility.yul\":1075:1099   */\n      tag_78\n      jump\t// in\n    tag_113:\n        /* \"#utility.yul\":1064:1099   */\n      swap1\n      pop\n        /* \"#utility.yul\":1001:1105   */\n      swap2\n      swap1\n      pop\n      jump\t// out\n        /* \"#utility.yul\":1111:1253   */\n    tag_80:\n        /* \"#utility.yul\":1214:1246   */\n      tag_115\n        /* \"#utility.yul\":1240:1245   */\n      dup2\n        /* \"#utility.yul\":1214:1246   */\n      tag_79\n      jump\t// in\n    tag_115:\n        /* \"#utility.yul\":1209:1212   */\n      dup3\n        /* \"#utility.yul\":1202:1247   */\n      mstore\n        /* \"#utility.yul\":1111:1253   */\n      pop\n      pop\n      jump\t// out\n        /* \"#utility.yul\":1259:1513   */\n    tag_36:\n        /* \"#utility.yul\":1368:1372   */\n      0x00\n        /* \"#utility.yul\":1406:1408   */\n      0x20\n        /* \"#utility.yul\":1395:1404   */\n      dup3\n        /* \"#utility.yul\":1391:1409   */\n      add\n        /* \"#utility.yul\":1383:1409   */\n      swap1\n      pop\n        /* \"#utility.yul\":1419:1506   */\n      tag_117\n        /* \"#utility.yul\":1503:1504   */\n      0x00\n        /* \"#utility.yul\":1492:1501   */\n      dup4\n        /* \"#utility.yul\":1488:1505   */\n      add\n        /* \"#utility.yul\":1479:1485   */\n      dup5\n        /* \"#utility.yul\":1419:1506   */\n      tag_80\n      jump\t// in\n    tag_117:\n        /* \"#utility.yul\":1259:1513   */\n      swap3\n      swap2\n      pop\n      pop\n      jump\t// out\n        /* \"#utility.yul\":1519:1688   */\n    tag_81:\n        /* \"#utility.yul\":1603:1614   */\n      0x00\n        /* \"#utility.yul\":1637:1643   */\n      dup3\n        /* \"#utility.yul\":1632:1635   */\n      dup3\n        /* \"#utility.yul\":1625:1644   */\n      mstore\n        /* \"#utility.yul\":1677:1681   */\n      0x20\n        /* \"#utility.yul\":1672:1675   */\n      dup3\n        /* \"#utility.yul\":1668:1682   */\n      add\n        /* \"#utility.yul\":1653:1682   */\n      swap1\n      pop\n        /* \"#utility.yul\":1519:1688   */\n      swap3\n      swap2\n      pop\n      pop\n      jump\t// out\n        /* \"#utility.yul\":1694:1872   */\n    tag_82:\n        /* \"#utility.yul\":1834:1864   */\n      0x4f6e6c7920426f622063616e2077697468647261772066756e64732100000000\n        /* \"#utility.yul\":1830:1831   */\n      0x00\n        /* \"#utility.yul\":1822:1828   */\n      dup3\n        /* \"#utility.yul\":1818:1832   */\n      add\n        /* \"#utility.yul\":1811:1865   */\n      mstore\n        /* \"#utility.yul\":1694:1872   */\n      pop\n      jump\t// out\n        /* \"#utility.yul\":1878:2244   */\n    tag_83:\n        /* \"#utility.yul\":2020:2023   */\n      0x00\n        /* \"#utility.yul\":2041:2108   */\n      tag_121\n        /* \"#utility.yul\":2105:2107   */\n      0x1c\n        /* \"#utility.yul\":2100:2103   */\n      dup4\n        /* \"#utility.yul\":2041:2108   */\n      tag_81\n      jump\t// in\n    tag_121:\n        /* \"#utility.yul\":2034:2108   */\n      swap2\n      pop\n        /* \"#utility.yul\":2117:2210   */\n      tag_122\n        /* \"#utility.yul\":2206:2209   */\n      dup3\n        /* \"#utility.yul\":2117:2210   */\n      tag_82\n      jump\t// in\n    tag_122:\n        /* \"#utility.yul\":2235:2237   */\n      0x20\n        /* \"#utility.yul\":2230:2233   */\n      dup3\n        /* \"#utility.yul\":2226:2238   */\n      add\n        /* \"#utility.yul\":2219:2238   */\n      swap1\n      pop\n        /* \"#utility.yul\":1878:2244   */\n      swap2\n      swap1\n      pop\n      jump\t// out\n        /* \"#utility.yul\":2250:2669   */\n    tag_47:\n        /* \"#utility.yul\":2416:2420   */\n      0x00\n        /* \"#utility.yul\":2454:2456   */\n      0x20\n        /* \"#utility.yul\":2443:2452   */\n      dup3\n        /* \"#utility.yul\":2439:2457   */\n      add\n        /* \"#utility.yul\":2431:2457   */\n      swap1\n      pop\n        /* \"#utility.yul\":2503:2512   */\n      dup2\n        /* \"#utility.yul\":2497:2501   */\n      dup2\n        /* \"#utility.yul\":2493:2513   */\n      sub\n        /* \"#utility.yul\":2489:2490   */\n      0x00\n        /* \"#utility.yul\":2478:2487   */\n      dup4\n        /* \"#utility.yul\":2474:2491   */\n      add\n        /* \"#utility.yul\":2467:2514   */\n      mstore\n        /* \"#utility.yul\":2531:2662   */\n      tag_124\n        /* \"#utility.yul\":2657:2661   */\n      dup2\n        /* \"#utility.yul\":2531:2662   */\n      tag_83\n      jump\t// in\n    tag_124:\n        /* \"#utility.yul\":2523:2662   */\n      swap1\n      pop\n        /* \"#utility.yul\":2250:2669   */\n      swap2\n      swap1\n      pop\n      jump\t// out\n        /* \"#utility.yul\":2675:2848   */\n    tag_84:\n        /* \"#utility.yul\":2815:2840   */\n      0x436f6e7472616374206973206e6f742066756e64656421000000000000000000\n        /* \"#utility.yul\":2811:2812   */\n      0x00\n        /* \"#utility.yul\":2803:2809   */\n      dup3\n        /* \"#utility.yul\":2799:2813   */\n      add\n        /* \"#utility.yul\":2792:2841   */\n      mstore\n        /* \"#utility.yul\":2675:2848   */\n      pop\n      jump\t// out\n        /* \"#utility.yul\":2854:3220   */\n    tag_85:\n        /* \"#utility.yul\":2996:2999   */\n      0x00\n        /* \"#utility.yul\":3017:3084   */\n      tag_127\n        /* \"#utility.yul\":3081:3083   */\n      0x17\n        /* \"#utility.yul\":3076:3079   */\n      dup4\n        /* \"#utility.yul\":3017:3084   */\n      tag_81\n      jump\t// in\n    tag_127:\n        /* \"#utility.yul\":3010:3084   */\n      swap2\n      pop\n        /* \"#utility.yul\":3093:3186   */\n      tag_128\n        /* \"#utility.yul\":3182:3185   */\n      dup3\n        /* \"#utility.yul\":3093:3186   */\n      tag_84\n      jump\t// in\n    tag_128:\n        /* \"#utility.yul\":3211:3213   */\n      0x20\n        /* \"#utility.yul\":3206:3209   */\n      dup3\n        /* \"#utility.yul\":3202:3214   */\n      add\n        /* \"#utility.yul\":3195:3214   */\n      swap1\n      pop\n        /* \"#utility.yul\":2854:3220   */\n      swap2\n      swap1\n      pop\n      jump\t// out\n        /* \"#utility.yul\":3226:3645   */\n    tag_50:\n        /* \"#utility.yul\":3392:3396   */\n      0x00\n        /* \"#utility.yul\":3430:3432   */\n      0x20\n        /* \"#utility.yul\":3419:3428   */\n      dup3\n        /* \"#utility.yul\":3415:3433   */\n      add\n        /* \"#utility.yul\":3407:3433   */\n      swap1\n      pop\n        /* \"#utility.yul\":3479:3488   */\n      dup2\n        /* \"#utility.yul\":3473:3477   */\n      dup2\n        /* \"#utility.yul\":3469:3489   */\n      sub\n        /* \"#utility.yul\":3465:3466   */\n      0x00\n        /* \"#utility.yul\":3454:3463   */\n      dup4\n        /* \"#utility.yul\":3450:3467   */\n      add\n        /* \"#utility.yul\":3443:3490   */\n      mstore\n        /* \"#utility.yul\":3507:3638   */\n      tag_130\n        /* \"#utility.yul\":3633:3637   */\n      dup2\n        /* \"#utility.yul\":3507:3638   */\n      tag_85\n      jump\t// in\n    tag_130:\n        /* \"#utility.yul\":3499:3638   */\n      swap1\n      pop\n        /* \"#utility.yul\":3226:3645   */\n      swap2\n      swap1\n      pop\n      jump\t// out\n        /* \"#utility.yul\":3651:3831   */\n    tag_86:\n        /* \"#utility.yul\":3699:3776   */\n      0x4e487b7100000000000000000000000000000000000000000000000000000000\n        /* \"#utility.yul\":3696:3697   */\n      0x00\n        /* \"#utility.yul\":3689:3777   */\n      mstore\n        /* \"#utility.yul\":3796:3800   */\n      0x11\n        /* \"#utility.yul\":3793:3794   */\n      0x04\n        /* \"#utility.yul\":3786:3801   */\n      mstore\n        /* \"#utility.yul\":3820:3824   */\n      0x24\n        /* \"#utility.yul\":3817:3818   */\n      0x00\n        /* \"#utility.yul\":3810:3825   */\n      revert\n        /* \"#utility.yul\":3837:4028   */\n    tag_52:\n        /* \"#utility.yul\":3877:3880   */\n      0x00\n        /* \"#utility.yul\":3896:3916   */\n      tag_133\n        /* \"#utility.yul\":3914:3915   */\n      dup3\n        /* \"#utility.yul\":3896:3916   */\n      tag_74\n      jump\t// in\n    tag_133:\n        /* \"#utility.yul\":3891:3916   */\n      swap2\n      pop\n        /* \"#utility.yul\":3930:3950   */\n      tag_134\n        /* \"#utility.yul\":3948:3949   */\n      dup4\n        /* \"#utility.yul\":3930:3950   */\n      tag_74\n      jump\t// in\n    tag_134:\n        /* \"#utility.yul\":3925:3950   */\n      swap3\n      pop\n        /* \"#utility.yul\":3973:3974   */\n      dup3\n        /* \"#utility.yul\":3970:3971   */\n      dup3\n        /* \"#utility.yul\":3966:3975   */\n      add\n        /* \"#utility.yul\":3959:3975   */\n      swap1\n      pop\n        /* \"#utility.yul\":3994:3997   */\n      dup1\n        /* \"#utility.yul\":3991:3992   */\n      dup3\n        /* \"#utility.yul\":3988:3998   */\n      gt\n        /* \"#utility.yul\":3985:4021   */\n      iszero\n      tag_135\n      jumpi\n        /* \"#utility.yul\":4001:4019   */\n      tag_136\n      tag_86\n      jump\t// in\n    tag_136:\n        /* \"#utility.yul\":3985:4021   */\n    tag_135:\n        /* \"#utility.yul\":3837:4028   */\n      swap3\n      swap2\n      pop\n      pop\n      jump\t// out\n        /* \"#utility.yul\":4034:4268   */\n    tag_87:\n        /* \"#utility.yul\":4174:4208   */\n      0x5769746864726177616c206e6f7420616c6c6f776564207965742e2057616974\n        /* \"#utility.yul\":4170:4171   */\n      0x00\n        /* \"#utility.yul\":4162:4168   */\n      dup3\n        /* \"#utility.yul\":4158:4172   */\n      add\n        /* \"#utility.yul\":4151:4209   */\n      mstore\n        /* \"#utility.yul\":4243:4260   */\n      0x20666f72206d696e203120646179210000000000000000000000000000000000\n        /* \"#utility.yul\":4238:4240   */\n      0x20\n        /* \"#utility.yul\":4230:4236   */\n      dup3\n        /* \"#utility.yul\":4226:4241   */\n      add\n        /* \"#utility.yul\":4219:4261   */\n      mstore\n        /* \"#utility.yul\":4034:4268   */\n      pop\n      jump\t// out\n        /* \"#utility.yul\":4274:4640   */\n    tag_88:\n        /* \"#utility.yul\":4416:4419   */\n      0x00\n        /* \"#utility.yul\":4437:4504   */\n      tag_139\n        /* \"#utility.yul\":4501:4503   */\n      0x2f\n        /* \"#utility.yul\":4496:4499   */\n      dup4\n        /* \"#utility.yul\":4437:4504   */\n      tag_81\n      jump\t// in\n    tag_139:\n        /* \"#utility.yul\":4430:4504   */\n      swap2\n      pop\n        /* \"#utility.yul\":4513:4606   */\n      tag_140\n        /* \"#utility.yul\":4602:4605   */\n      dup3\n        /* \"#utility.yul\":4513:4606   */\n      tag_87\n      jump\t// in\n    tag_140:\n        /* \"#utility.yul\":4631:4633   */\n      0x40\n        /* \"#utility.yul\":4626:4629   */\n      dup3\n        /* \"#utility.yul\":4622:4634   */\n      add\n        /* \"#utility.yul\":4615:4634   */\n      swap1\n      pop\n        /* \"#utility.yul\":4274:4640   */\n      swap2\n      swap1\n      pop\n      jump\t// out\n        /* \"#utility.yul\":4646:5065   */\n    tag_55:\n        /* \"#utility.yul\":4812:4816   */\n      0x00\n        /* \"#utility.yul\":4850:4852   */\n      0x20\n        /* \"#utility.yul\":4839:4848   */\n      dup3\n        /* \"#utility.yul\":4835:4853   */\n      add\n        /* \"#utility.yul\":4827:4853   */\n      swap1\n      pop\n        /* \"#utility.yul\":4899:4908   */\n      dup2\n        /* \"#utility.yul\":4893:4897   */\n      dup2\n        /* \"#utility.yul\":4889:4909   */\n      sub\n        /* \"#utility.yul\":4885:4886   */\n      0x00\n        /* \"#utility.yul\":4874:4883   */\n      dup4\n        /* \"#utility.yul\":4870:4887   */\n      add\n        /* \"#utility.yul\":4863:4910   */\n      mstore\n        /* \"#utility.yul\":4927:5058   */\n      tag_142\n        /* \"#utility.yul\":5053:5057   */\n      dup2\n        /* \"#utility.yul\":4927:5058   */\n      tag_88\n      jump\t// in\n    tag_142:\n        /* \"#utility.yul\":4919:5058   */\n      swap1\n      pop\n        /* \"#utility.yul\":4646:5065   */\n      swap2\n      swap1\n      pop\n      jump\t// out\n        /* \"#utility.yul\":5071:5250   */\n    tag_89:\n        /* \"#utility.yul\":5211:5242   */\n      0x4e6f7420656e6f7567682066756e647320746f20776974686472617721000000\n        /* \"#utility.yul\":5207:5208   */\n      0x00\n        /* \"#utility.yul\":5199:5205   */\n      dup3\n        /* \"#utility.yul\":5195:5209   */\n      add\n        /* \"#utility.yul\":5188:5243   */\n      mstore\n        /* \"#utility.yul\":5071:5250   */\n      pop\n      jump\t// out\n        /* \"#utility.yul\":5256:5622   */\n    tag_90:\n        /* \"#utility.yul\":5398:5401   */\n      0x00\n        /* \"#utility.yul\":5419:5486   */\n      tag_145\n        /* \"#utility.yul\":5483:5485   */\n      0x1d\n        /* \"#utility.yul\":5478:5481   */\n      dup4\n        /* \"#utility.yul\":5419:5486   */\n      tag_81\n      jump\t// in\n    tag_145:\n        /* \"#utility.yul\":5412:5486   */\n      swap2\n      pop\n        /* \"#utility.yul\":5495:5588   */\n      tag_146\n        /* \"#utility.yul\":5584:5587   */\n      dup3\n        /* \"#utility.yul\":5495:5588   */\n      tag_89\n      jump\t// in\n    tag_146:\n        /* \"#utility.yul\":5613:5615   */\n      0x20\n        /* \"#utility.yul\":5608:5611   */\n      dup3\n        /* \"#utility.yul\":5604:5616   */\n      add\n        /* \"#utility.yul\":5597:5616   */\n      swap1\n      pop\n        /* \"#utility.yul\":5256:5622   */\n      swap2\n      swap1\n      pop\n      jump\t// out\n        /* \"#utility.yul\":5628:6047   */\n    tag_58:\n        /* \"#utility.yul\":5794:5798   */\n      0x00\n        /* \"#utility.yul\":5832:5834   */\n      0x20\n        /* \"#utility.yul\":5821:5830   */\n      dup3\n        /* \"#utility.yul\":5817:5835   */\n      add\n        /* \"#utility.yul\":5809:5835   */\n      swap1\n      pop\n        /* \"#utility.yul\":5881:5890   */\n      dup2\n        /* \"#utility.yul\":5875:5879   */\n      dup2\n        /* \"#utility.yul\":5871:5891   */\n      sub\n        /* \"#utility.yul\":5867:5868   */\n      0x00\n        /* \"#utility.yul\":5856:5865   */\n      dup4\n        /* \"#utility.yul\":5852:5869   */\n      add\n        /* \"#utility.yul\":5845:5892   */\n      mstore\n        /* \"#utility.yul\":5909:6040   */\n      tag_148\n        /* \"#utility.yul\":6035:6039   */\n      dup2\n        /* \"#utility.yul\":5909:6040   */\n      tag_90\n      jump\t// in\n    tag_148:\n        /* \"#utility.yul\":5901:6040   */\n      swap1\n      pop\n        /* \"#utility.yul\":5628:6047   */\n      swap2\n      swap1\n      pop\n      jump\t// out\n        /* \"#utility.yul\":6053:6200   */\n    tag_91:\n        /* \"#utility.yul\":6154:6165   */\n      0x00\n        /* \"#utility.yul\":6191:6194   */\n      dup2\n        /* \"#utility.yul\":6176:6194   */\n      swap1\n      pop\n        /* \"#utility.yul\":6053:6200   */\n      swap3\n      swap2\n      pop\n      pop\n      jump\t// out\n        /* \"#utility.yul\":6206:6320   */\n    tag_92:\n      pop\n      jump\t// out\n        /* \"#utility.yul\":6326:6724   */\n    tag_93:\n        /* \"#utility.yul\":6485:6488   */\n      0x00\n        /* \"#utility.yul\":6506:6589   */\n      tag_152\n        /* \"#utility.yul\":6587:6588   */\n      0x00\n        /* \"#utility.yul\":6582:6585   */\n      dup4\n        /* \"#utility.yul\":6506:6589   */\n      tag_91\n      jump\t// in\n    tag_152:\n        /* \"#utility.yul\":6499:6589   */\n      swap2\n      pop\n        /* \"#utility.yul\":6598:6691   */\n      tag_153\n        /* \"#utility.yul\":6687:6690   */\n      dup3\n        /* \"#utility.yul\":6598:6691   */\n      tag_92\n      jump\t// in\n    tag_153:\n        /* \"#utility.yul\":6716:6717   */\n      0x00\n        /* \"#utility.yul\":6711:6714   */\n      dup3\n        /* \"#utility.yul\":6707:6718   */\n      add\n        /* \"#utility.yul\":6700:6718   */\n      swap1\n      pop\n        /* \"#utility.yul\":6326:6724   */\n      swap2\n      swap1\n      pop\n      jump\t// out\n        /* \"#utility.yul\":6730:7109   */\n    tag_60:\n        /* \"#utility.yul\":6914:6917   */\n      0x00\n        /* \"#utility.yul\":6936:7083   */\n      tag_155\n        /* \"#utility.yul\":7079:7082   */\n      dup3\n        /* \"#utility.yul\":6936:7083   */\n      tag_93\n      jump\t// in\n    tag_155:\n        /* \"#utility.yul\":6929:7083   */\n      swap2\n      pop\n        /* \"#utility.yul\":7100:7103   */\n      dup2\n        /* \"#utility.yul\":7093:7103   */\n      swap1\n      pop\n        /* \"#utility.yul\":6730:7109   */\n      swap2\n      swap1\n      pop\n      jump\t// out\n        /* \"#utility.yul\":7115:7288   */\n    tag_94:\n        /* \"#utility.yul\":7255:7280   */\n      0x4661696c656420746f2073656e6420457468657265756d000000000000000000\n        /* \"#utility.yul\":7251:7252   */\n      0x00\n        /* \"#utility.yul\":7243:7249   */\n      dup3\n        /* \"#utility.yul\":7239:7253   */\n      add\n        /* \"#utility.yul\":7232:7281   */\n      mstore\n        /* \"#utility.yul\":7115:7288   */\n      pop\n      jump\t// out\n        /* \"#utility.yul\":7294:7660   */\n    tag_95:\n        /* \"#utility.yul\":7436:7439   */\n      0x00\n        /* \"#utility.yul\":7457:7524   */\n      tag_158\n        /* \"#utility.yul\":7521:7523   */\n      0x17\n        /* \"#utility.yul\":7516:7519   */\n      dup4\n        /* \"#utility.yul\":7457:7524   */\n      tag_81\n      jump\t// in\n    tag_158:\n        /* \"#utility.yul\":7450:7524   */\n      swap2\n      pop\n        /* \"#utility.yul\":7533:7626   */\n      tag_159\n        /* \"#utility.yul\":7622:7625   */\n      dup3\n        /* \"#utility.yul\":7533:7626   */\n      tag_94\n      jump\t// in\n    tag_159:\n        /* \"#utility.yul\":7651:7653   */\n      0x20\n        /* \"#utility.yul\":7646:7649   */\n      dup3\n        /* \"#utility.yul\":7642:7654   */\n      add\n        /* \"#utility.yul\":7635:7654   */\n      swap1\n      pop\n        /* \"#utility.yul\":7294:7660   */\n      swap2\n      swap1\n      pop\n      jump\t// out\n        /* \"#utility.yul\":7666:8085   */\n    tag_66:\n        /* \"#utility.yul\":7832:7836   */\n      0x00\n        /* \"#utility.yul\":7870:7872   */\n      0x20\n        /* \"#utility.yul\":7859:7868   */\n      dup3\n        /* \"#utility.yul\":7855:7873   */\n      add\n        /* \"#utility.yul\":7847:7873   */\n      swap1\n      pop\n        /* \"#utility.yul\":7919:7928   */\n      dup2\n        /* \"#utility.yul\":7913:7917   */\n      dup2\n        /* \"#utility.yul\":7909:7929   */\n      sub\n        /* \"#utility.yul\":7905:7906   */\n      0x00\n        /* \"#utility.yul\":7894:7903   */\n      dup4\n        /* \"#utility.yul\":7890:7907   */\n      add\n        /* \"#utility.yul\":7883:7930   */\n      mstore\n        /* \"#utility.yul\":7947:8078   */\n      tag_161\n        /* \"#utility.yul\":8073:8077   */\n      dup2\n        /* \"#utility.yul\":7947:8078   */\n      tag_95\n      jump\t// in\n    tag_161:\n        /* \"#utility.yul\":7939:8078   */\n      swap1\n      pop\n        /* \"#utility.yul\":7666:8085   */\n      swap2\n      swap1\n      pop\n      jump\t// out\n        /* \"#utility.yul\":8091:8269   */\n    tag_96:\n        /* \"#utility.yul\":8231:8261   */\n      0x416c72656164792066756e6465642074686520636f6e74726163742100000000\n        /* \"#utility.yul\":8227:8228   */\n      0x00\n        /* \"#utility.yul\":8219:8225   */\n      dup3\n        /* \"#utility.yul\":8215:8229   */\n      add\n        /* \"#utility.yul\":8208:8262   */\n      mstore\n        /* \"#utility.yul\":8091:8269   */\n      pop\n      jump\t// out\n        /* \"#utility.yul\":8275:8641   */\n    tag_97:\n        /* \"#utility.yul\":8417:8420   */\n      0x00\n        /* \"#utility.yul\":8438:8505   */\n      tag_164\n        /* \"#utility.yul\":8502:8504   */\n      0x1c\n        /* \"#utility.yul\":8497:8500   */\n      dup4\n        /* \"#utility.yul\":8438:8505   */\n      tag_81\n      jump\t// in\n    tag_164:\n        /* \"#utility.yul\":8431:8505   */\n      swap2\n      pop\n        /* \"#utility.yul\":8514:8607   */\n      tag_165\n        /* \"#utility.yul\":8603:8606   */\n      dup3\n        /* \"#utility.yul\":8514:8607   */\n      tag_96\n      jump\t// in\n    tag_165:\n        /* \"#utility.yul\":8632:8634   */\n      0x20\n        /* \"#utility.yul\":8627:8630   */\n      dup3\n        /* \"#utility.yul\":8623:8635   */\n      add\n        /* \"#utility.yul\":8616:8635   */\n      swap1\n      pop\n        /* \"#utility.yul\":8275:8641   */\n      swap2\n      swap1\n      pop\n      jump\t// out\n        /* \"#utility.yul\":8647:9066   */\n    tag_70:\n        /* \"#utility.yul\":8813:8817   */\n      0x00\n        /* \"#utility.yul\":8851:8853   */\n      0x20\n        /* \"#utility.yul\":8840:8849   */\n      dup3\n        /* \"#utility.yul\":8836:8854   */\n      add\n        /* \"#utility.yul\":8828:8854   */\n      swap1\n      pop\n        /* \"#utility.yul\":8900:8909   */\n      dup2\n        /* \"#utility.yul\":8894:8898   */\n      dup2\n        /* \"#utility.yul\":8890:8910   */\n      sub\n        /* \"#utility.yul\":8886:8887   */\n      0x00\n        /* \"#utility.yul\":8875:8884   */\n      dup4\n        /* \"#utility.yul\":8871:8888   */\n      add\n        /* \"#utility.yul\":8864:8911   */\n      mstore\n        /* \"#utility.yul\":8928:9059   */\n      tag_167\n        /* \"#utility.yul\":9054:9058   */\n      dup2\n        /* \"#utility.yul\":8928:9059   */\n      tag_97\n      jump\t// in\n    tag_167:\n        /* \"#utility.yul\":8920:9059   */\n      swap1\n      pop\n        /* \"#utility.yul\":8647:9066   */\n      swap2\n      swap1\n      pop\n      jump\t// out\n        /* \"#utility.yul\":9072:9296   */\n    tag_98:\n        /* \"#utility.yul\":9212:9246   */\n      0x4465706f73697420616d6f756e74206e6f742065786163746c7920302e303031\n        /* \"#utility.yul\":9208:9209   */\n      0x00\n        /* \"#utility.yul\":9200:9206   */\n      dup3\n        /* \"#utility.yul\":9196:9210   */\n      add\n        /* \"#utility.yul\":9189:9247   */\n      mstore\n        /* \"#utility.yul\":9281:9288   */\n      0x2045544821000000000000000000000000000000000000000000000000000000\n        /* \"#utility.yul\":9276:9278   */\n      0x20\n        /* \"#utility.yul\":9268:9274   */\n      dup3\n        /* \"#utility.yul\":9264:9279   */\n      add\n        /* \"#utility.yul\":9257:9289   */\n      mstore\n        /* \"#utility.yul\":9072:9296   */\n      pop\n      jump\t// out\n        /* \"#utility.yul\":9302:9668   */\n    tag_99:\n        /* \"#utility.yul\":9444:9447   */\n      0x00\n        /* \"#utility.yul\":9465:9532   */\n      tag_170\n        /* \"#utility.yul\":9529:9531   */\n      0x25\n        /* \"#utility.yul\":9524:9527   */\n      dup4\n        /* \"#utility.yul\":9465:9532   */\n      tag_81\n      jump\t// in\n    tag_170:\n        /* \"#utility.yul\":9458:9532   */\n      swap2\n      pop\n        /* \"#utility.yul\":9541:9634   */\n      tag_171\n        /* \"#utility.yul\":9630:9633   */\n      dup3\n        /* \"#utility.yul\":9541:9634   */\n      tag_98\n      jump\t// in\n    tag_171:\n        /* \"#utility.yul\":9659:9661   */\n      0x40\n        /* \"#utility.yul\":9654:9657   */\n      dup3\n        /* \"#utility.yul\":9650:9662   */\n      add\n        /* \"#utility.yul\":9643:9662   */\n      swap1\n      pop\n        /* \"#utility.yul\":9302:9668   */\n      swap2\n      swap1\n      pop\n      jump\t// out\n        /* \"#utility.yul\":9674:10093   */\n    tag_73:\n        /* \"#utility.yul\":9840:9844   */\n      0x00\n        /* \"#utility.yul\":9878:9880   */\n      0x20\n        /* \"#utility.yul\":9867:9876   */\n      dup3\n        /* \"#utility.yul\":9863:9881   */\n      add\n        /* \"#utility.yul\":9855:9881   */\n      swap1\n      pop\n        /* \"#utility.yul\":9927:9936   */\n      dup2\n        /* \"#utility.yul\":9921:9925   */\n      dup2\n        /* \"#utility.yul\":9917:9937   */\n      sub\n        /* \"#utility.yul\":9913:9914   */\n      0x00\n        /* \"#utility.yul\":9902:9911   */\n      dup4\n        /* \"#utility.yul\":9898:9915   */\n      add\n        /* \"#utility.yul\":9891:9938   */\n      mstore\n        /* \"#utility.yul\":9955:10086   */\n      tag_173\n        /* \"#utility.yul\":10081:10085   */\n      dup2\n        /* \"#utility.yul\":9955:10086   */\n      tag_99\n      jump\t// in\n    tag_173:\n        /* \"#utility.yul\":9947:10086   */\n      swap1\n      pop\n        /* \"#utility.yul\":9674:10093   */\n      swap2\n      swap1\n      pop\n      jump\t// out\n\n    auxdata: 0xa264697066735822122092cccc7d4939938829631f8e98356c063c456a240ab5e4b20b51bac2f81bfc2a64736f6c63430008160033\n}\n",
				"bytecode": {
					"linkReferences": {},
					"object": "608060405234801561000f575f80fd5b50610a028061001d5f395ff3fe60806040526004361061007a575f3560e01c80637c6543031161004d5780637c65430314610112578063c09cec771461013c578063d0e30db014610166578063fb47e3a2146101705761007a565b806312065fe01461007e5780633ccfd60b146100a8578063419759f5146100be5780635e8a626e146100e8575b5f80fd5b348015610089575f80fd5b5061009261019a565b60405161009f9190610553565b60405180910390f35b3480156100b3575f80fd5b506100bc6101a1565b005b3480156100c9575f80fd5b506100d26103e3565b6040516100df9190610553565b60405180910390f35b3480156100f3575f80fd5b506100fc6103ee565b6040516101099190610553565b60405180910390f35b34801561011d575f80fd5b506101266103f4565b6040516101339190610586565b60405180910390f35b348015610147575f80fd5b50610150610406565b60405161015d91906105de565b60405180910390f35b61016e61041e565b005b34801561017b575f80fd5b50610184610518565b60405161019191906105de565b60405180910390f35b5f47905090565b73ecf74c19215c8dd2baf16ad3a6ec1a25386d813c73ffffffffffffffffffffffffffffffffffffffff163373ffffffffffffffffffffffffffffffffffffffff1614610223576040517f08c379a000000000000000000000000000000000000000000000000000000000815260040161021a90610651565b60405180910390fd5b60025f9054906101000a900460ff16610271576040517f08c379a0000000000000000000000000000000000000000000000000000000008152600401610268906106b9565b60405180910390fd5b620151806001546102829190610704565b4210156102c4576040517f08c379a00000000000000000000000000000000000000000000000000000000081526004016102bb906107a7565b60405180910390fd5b5f4790505f810361030a576040517f08c379a00000000000000000000000000000000000000000000000000000000081526004016103019061080f565b60405180910390fd5b5f73ecf74c19215c8dd2baf16ad3a6ec1a25386d813c73ffffffffffffffffffffffffffffffffffffffff16826040516103439061085a565b5f6040518083038185875af1925050503d805f811461037d576040519150601f19603f3d011682016040523d82523d5f602084013e610382565b606091505b50509050806103c6576040517f08c379a00000000000000000000000000000000000000000000000000000000081526004016103bd906108b8565b60405180910390fd5b5f60025f6101000a81548160ff0219169083151502179055505050565b66038d7ea4c6800081565b60015481565b60025f9054906101000a900460ff1681565b73ecf74c19215c8dd2baf16ad3a6ec1a25386d813c81565b60025f9054906101000a900460ff161561046d576040517f08c379a000000000000000000000000000000000000000000000000000000000815260040161046490610920565b60405180910390fd5b66038d7ea4c6800034146104b6576040517f08c379a00000000000000000000000000000000000000000000000000000000081526004016104ad906109ae565b60405180910390fd5b335f806101000a81548173ffffffffffffffffffffffffffffffffffffffff021916908373ffffffffffffffffffffffffffffffffffffffff16021790555042600181905550600160025f6101000a81548160ff021916908315150217905550565b5f8054906101000a900473ffffffffffffffffffffffffffffffffffffffff1681565b5f819050919050565b61054d8161053b565b82525050565b5f6020820190506105665f830184610544565b92915050565b5f8115159050919050565b6105808161056c565b82525050565b5f6020820190506105995f830184610577565b92915050565b5f73ffffffffffffffffffffffffffffffffffffffff82169050919050565b5f6105c88261059f565b9050919050565b6105d8816105be565b82525050565b5f6020820190506105f15f8301846105cf565b92915050565b5f82825260208201905092915050565b7f4f6e6c7920426f622063616e2077697468647261772066756e647321000000005f82015250565b5f61063b601c836105f7565b915061064682610607565b602082019050919050565b5f6020820190508181035f8301526106688161062f565b9050919050565b7f436f6e7472616374206973206e6f742066756e646564210000000000000000005f82015250565b5f6106a36017836105f7565b91506106ae8261066f565b602082019050919050565b5f6020820190508181035f8301526106d081610697565b9050919050565b7f4e487b71000000000000000000000000000000000000000000000000000000005f52601160045260245ffd5b5f61070e8261053b565b91506107198361053b565b9250828201905080821115610731576107306106d7565b5b92915050565b7f5769746864726177616c206e6f7420616c6c6f776564207965742e20576169745f8201527f20666f72206d696e203120646179210000000000000000000000000000000000602082015250565b5f610791602f836105f7565b915061079c82610737565b604082019050919050565b5f6020820190508181035f8301526107be81610785565b9050919050565b7f4e6f7420656e6f7567682066756e647320746f207769746864726177210000005f82015250565b5f6107f9601d836105f7565b9150610804826107c5565b602082019050919050565b5f6020820190508181035f830152610826816107ed565b9050919050565b5f81905092915050565b50565b5f6108455f8361082d565b915061085082610837565b5f82019050919050565b5f6108648261083a565b9150819050919050565b7f4661696c656420746f2073656e6420457468657265756d0000000000000000005f82015250565b5f6108a26017836105f7565b91506108ad8261086e565b602082019050919050565b5f6020820190508181035f8301526108cf81610896565b9050919050565b7f416c72656164792066756e6465642074686520636f6e747261637421000000005f82015250565b5f61090a601c836105f7565b9150610915826108d6565b602082019050919050565b5f6020820190508181035f830152610937816108fe565b9050919050565b7f4465706f73697420616d6f756e74206e6f742065786163746c7920302e3030315f8201527f2045544821000000000000000000000000000000000000000000000000000000602082015250565b5f6109986025836105f7565b91506109a38261093e565b604082019050919050565b5f6020820190508181035f8301526109c58161098c565b905091905056fea264697066735822122092cccc7d4939938829631f8e98356c063c456a240ab5e4b20b51bac2f81bfc2a64736f6c63430008160033",
					"opcodes": "PUSH1 0x80 PUSH1 0x40 MSTORE CALLVALUE DUP1 ISZERO PUSH2 0xF JUMPI PUSH0 DUP1 REVERT JUMPDEST POP PUSH2 0xA02 DUP1 PUSH2 0x1D PUSH0 CODECOPY PUSH0 RETURN INVALID PUSH1 0x80 PUSH1 0x40 MSTORE PUSH1 0x4 CALLDATASIZE LT PUSH2 0x7A JUMPI PUSH0 CALLDATALOAD PUSH1 0xE0 SHR DUP1 PUSH4 0x7C654303 GT PUSH2 0x4D JUMPI DUP1 PUSH4 0x7C654303 EQ PUSH2 0x112 JUMPI DUP1 PUSH4 0xC09CEC77 EQ PUSH2 0x13C JUMPI DUP1 PUSH4 0xD0E30DB0 EQ PUSH2 0x166 JUMPI DUP1 PUSH4 0xFB47E3A2 EQ PUSH2 0x170 JUMPI PUSH2 0x7A JUMP JUMPDEST DUP1 PUSH4 0x12065FE0 EQ PUSH2 0x7E JUMPI DUP1 PUSH4 0x3CCFD60B EQ PUSH2 0xA8 JUMPI DUP1 PUSH4 0x419759F5 EQ PUSH2 0xBE JUMPI DUP1 PUSH4 0x5E8A626E EQ PUSH2 0xE8 JUMPI JUMPDEST PUSH0 DUP1 REVERT JUMPDEST CALLVALUE DUP1 ISZERO PUSH2 0x89 JUMPI PUSH0 DUP1 REVERT JUMPDEST POP PUSH2 0x92 PUSH2 0x19A JUMP JUMPDEST PUSH1 0x40 MLOAD PUSH2 0x9F SWAP2 SWAP1 PUSH2 0x553 JUMP JUMPDEST PUSH1 0x40 MLOAD DUP1 SWAP2 SUB SWAP1 RETURN JUMPDEST CALLVALUE DUP1 ISZERO PUSH2 0xB3 JUMPI PUSH0 DUP1 REVERT JUMPDEST POP PUSH2 0xBC PUSH2 0x1A1 JUMP JUMPDEST STOP JUMPDEST CALLVALUE DUP1 ISZERO PUSH2 0xC9 JUMPI PUSH0 DUP1 REVERT JUMPDEST POP PUSH2 0xD2 PUSH2 0x3E3 JUMP JUMPDEST PUSH1 0x40 MLOAD PUSH2 0xDF SWAP2 SWAP1 PUSH2 0x553 JUMP JUMPDEST PUSH1 0x40 MLOAD DUP1 SWAP2 SUB SWAP1 RETURN JUMPDEST CALLVALUE DUP1 ISZERO PUSH2 0xF3 JUMPI PUSH0 DUP1 REVERT JUMPDEST POP PUSH2 0xFC PUSH2 0x3EE JUMP JUMPDEST PUSH1 0x40 MLOAD PUSH2 0x109 SWAP2 SWAP1 PUSH2 0x553 JUMP JUMPDEST PUSH1 0x40 MLOAD DUP1 SWAP2 SUB SWAP1 RETURN JUMPDEST CALLVALUE DUP1 ISZERO PUSH2 0x11D JUMPI PUSH0 DUP1 REVERT JUMPDEST POP PUSH2 0x126 PUSH2 0x3F4 JUMP JUMPDEST PUSH1 0x40 MLOAD PUSH2 0x133 SWAP2 SWAP1 PUSH2 0x586 JUMP JUMPDEST PUSH1 0x40 MLOAD DUP1 SWAP2 SUB SWAP1 RETURN JUMPDEST CALLVALUE DUP1 ISZERO PUSH2 0x147 JUMPI PUSH0 DUP1 REVERT JUMPDEST POP PUSH2 0x150 PUSH2 0x406 JUMP JUMPDEST PUSH1 0x40 MLOAD PUSH2 0x15D SWAP2 SWAP1 PUSH2 0x5DE JUMP JUMPDEST PUSH1 0x40 MLOAD DUP1 SWAP2 SUB SWAP1 RETURN JUMPDEST PUSH2 0x16E PUSH2 0x41E JUMP JUMPDEST STOP JUMPDEST CALLVALUE DUP1 ISZERO PUSH2 0x17B JUMPI PUSH0 DUP1 REVERT JUMPDEST POP PUSH2 0x184 PUSH2 0x518 JUMP JUMPDEST PUSH1 0x40 MLOAD PUSH2 0x191 SWAP2 SWAP1 PUSH2 0x5DE JUMP JUMPDEST PUSH1 0x40 MLOAD DUP1 SWAP2 SUB SWAP1 RETURN JUMPDEST PUSH0 SELFBALANCE SWAP1 POP SWAP1 JUMP JUMPDEST PUSH20 0xECF74C19215C8DD2BAF16AD3A6EC1A25386D813C PUSH20 0xFFFFFFFFFFFFFFFFFFFFFFFFFFFFFFFFFFFFFFFF AND CALLER PUSH20 0xFFFFFFFFFFFFFFFFFFFFFFFFFFFFFFFFFFFFFFFF AND EQ PUSH2 0x223 JUMPI PUSH1 0x40 MLOAD PUSH32 0x8C379A000000000000000000000000000000000000000000000000000000000 DUP2 MSTORE PUSH1 0x4 ADD PUSH2 0x21A SWAP1 PUSH2 0x651 JUMP JUMPDEST PUSH1 0x40 MLOAD DUP1 SWAP2 SUB SWAP1 REVERT JUMPDEST PUSH1 0x2 PUSH0 SWAP1 SLOAD SWAP1 PUSH2 0x100 EXP SWAP1 DIV PUSH1 0xFF AND PUSH2 0x271 JUMPI PUSH1 0x40 MLOAD PUSH32 0x8C379A000000000000000000000000000000000000000000000000000000000 DUP2 MSTORE PUSH1 0x4 ADD PUSH2 0x268 SWAP1 PUSH2 0x6B9 JUMP JUMPDEST PUSH1 0x40 MLOAD DUP1 SWAP2 SUB SWAP1 REVERT JUMPDEST PUSH3 0x15180 PUSH1 0x1 SLOAD PUSH2 0x282 SWAP2 SWAP1 PUSH2 0x704 JUMP JUMPDEST TIMESTAMP LT ISZERO PUSH2 0x2C4 JUMPI PUSH1 0x40 MLOAD PUSH32 0x8C379A000000000000000000000000000000000000000000000000000000000 DUP2 MSTORE PUSH1 0x4 ADD PUSH2 0x2BB SWAP1 PUSH2 0x7A7 JUMP JUMPDEST PUSH1 0x40 MLOAD DUP1 SWAP2 SUB SWAP1 REVERT JUMPDEST PUSH0 SELFBALANCE SWAP1 POP PUSH0 DUP2 SUB PUSH2 0x30A JUMPI PUSH1 0x40 MLOAD PUSH32 0x8C379A000000000000000000000000000000000000000000000000000000000 DUP2 MSTORE PUSH1 0x4 ADD PUSH2 0x301 SWAP1 PUSH2 0x80F JUMP JUMPDEST PUSH1 0x40 MLOAD DUP1 SWAP2 SUB SWAP1 REVERT JUMPDEST PUSH0 PUSH20 0xECF74C19215C8DD2BAF16AD3A6EC1A25386D813C PUSH20 0xFFFFFFFFFFFFFFFFFFFFFFFFFFFFFFFFFFFFFFFF AND DUP3 PUSH1 0x40 MLOAD PUSH2 0x343 SWAP1 PUSH2 0x85A JUMP JUMPDEST PUSH0 PUSH1 0x40 MLOAD DUP1 DUP4 SUB DUP2 DUP6 DUP8 GAS CALL SWAP3 POP POP POP RETURNDATASIZE DUP1 PUSH0 DUP2 EQ PUSH2 0x37D JUMPI PUSH1 0x40 MLOAD SWAP2 POP PUSH1 0x1F NOT PUSH1 0x3F RETURNDATASIZE ADD AND DUP3 ADD PUSH1 0x40 MSTORE RETURNDATASIZE DUP3 MSTORE RETURNDATASIZE PUSH0 PUSH1 0x20 DUP5 ADD RETURNDATACOPY PUSH2 0x382 JUMP JUMPDEST PUSH1 0x60 SWAP2 POP JUMPDEST POP POP SWAP1 POP DUP1 PUSH2 0x3C6 JUMPI PUSH1 0x40 MLOAD PUSH32 0x8C379A000000000000000000000000000000000000000000000000000000000 DUP2 MSTORE PUSH1 0x4 ADD PUSH2 0x3BD SWAP1 PUSH2 0x8B8 JUMP JUMPDEST PUSH1 0x40 MLOAD DUP1 SWAP2 SUB SWAP1 REVERT JUMPDEST PUSH0 PUSH1 0x2 PUSH0 PUSH2 0x100 EXP DUP2 SLOAD DUP2 PUSH1 0xFF MUL NOT AND SWAP1 DUP4 ISZERO ISZERO MUL OR SWAP1 SSTORE POP POP POP JUMP JUMPDEST PUSH7 0x38D7EA4C68000 DUP2 JUMP JUMPDEST PUSH1 0x1 SLOAD DUP2 JUMP JUMPDEST PUSH1 0x2 PUSH0 SWAP1 SLOAD SWAP1 PUSH2 0x100 EXP SWAP1 DIV PUSH1 0xFF AND DUP2 JUMP JUMPDEST PUSH20 0xECF74C19215C8DD2BAF16AD3A6EC1A25386D813C DUP2 JUMP JUMPDEST PUSH1 0x2 PUSH0 SWAP1 SLOAD SWAP1 PUSH2 0x100 EXP SWAP1 DIV PUSH1 0xFF AND ISZERO PUSH2 0x46D JUMPI PUSH1 0x40 MLOAD PUSH32 0x8C379A000000000000000000000000000000000000000000000000000000000 DUP2 MSTORE PUSH1 0x4 ADD PUSH2 0x464 SWAP1 PUSH2 0x920 JUMP JUMPDEST PUSH1 0x40 MLOAD DUP1 SWAP2 SUB SWAP1 REVERT JUMPDEST PUSH7 0x38D7EA4C68000 CALLVALUE EQ PUSH2 0x4B6 JUMPI PUSH1 0x40 MLOAD PUSH32 0x8C379A000000000000000000000000000000000000000000000000000000000 DUP2 MSTORE PUSH1 0x4 ADD PUSH2 0x4AD SWAP1 PUSH2 0x9AE JUMP JUMPDEST PUSH1 0x40 MLOAD DUP1 SWAP2 SUB SWAP1 REVERT JUMPDEST CALLER PUSH0 DUP1 PUSH2 0x100 EXP DUP2 SLOAD DUP2 PUSH20 0xFFFFFFFFFFFFFFFFFFFFFFFFFFFFFFFFFFFFFFFF MUL NOT AND SWAP1 DUP4 PUSH20 0xFFFFFFFFFFFFFFFFFFFFFFFFFFFFFFFFFFFFFFFF AND MUL OR SWAP1 SSTORE POP TIMESTAMP PUSH1 0x1 DUP2 SWAP1 SSTORE POP PUSH1 0x1 PUSH1 0x2 PUSH0 PUSH2 0x100 EXP DUP2 SLOAD DUP2 PUSH1 0xFF MUL NOT AND SWAP1 DUP4 ISZERO ISZERO MUL OR SWAP1 SSTORE POP JUMP JUMPDEST PUSH0 DUP1 SLOAD SWAP1 PUSH2 0x100 EXP SWAP1 DIV PUSH20 0xFFFFFFFFFFFFFFFFFFFFFFFFFFFFFFFFFFFFFFFF AND DUP2 JUMP JUMPDEST PUSH0 DUP2 SWAP1 POP SWAP2 SWAP1 POP JUMP JUMPDEST PUSH2 0x54D DUP2 PUSH2 0x53B JUMP JUMPDEST DUP3 MSTORE POP POP JUMP JUMPDEST PUSH0 PUSH1 0x20 DUP3 ADD SWAP1 POP PUSH2 0x566 PUSH0 DUP4 ADD DUP5 PUSH2 0x544 JUMP JUMPDEST SWAP3 SWAP2 POP POP JUMP JUMPDEST PUSH0 DUP2 ISZERO ISZERO SWAP1 POP SWAP2 SWAP1 POP JUMP JUMPDEST PUSH2 0x580 DUP2 PUSH2 0x56C JUMP JUMPDEST DUP3 MSTORE POP POP JUMP JUMPDEST PUSH0 PUSH1 0x20 DUP3 ADD SWAP1 POP PUSH2 0x599 PUSH0 DUP4 ADD DUP5 PUSH2 0x577 JUMP JUMPDEST SWAP3 SWAP2 POP POP JUMP JUMPDEST PUSH0 PUSH20 0xFFFFFFFFFFFFFFFFFFFFFFFFFFFFFFFFFFFFFFFF DUP3 AND SWAP1 POP SWAP2 SWAP1 POP JUMP JUMPDEST PUSH0 PUSH2 0x5C8 DUP3 PUSH2 0x59F JUMP JUMPDEST SWAP1 POP SWAP2 SWAP1 POP JUMP JUMPDEST PUSH2 0x5D8 DUP2 PUSH2 0x5BE JUMP JUMPDEST DUP3 MSTORE POP POP JUMP JUMPDEST PUSH0 PUSH1 0x20 DUP3 ADD SWAP1 POP PUSH2 0x5F1 PUSH0 DUP4 ADD DUP5 PUSH2 0x5CF JUMP JUMPDEST SWAP3 SWAP2 POP POP JUMP JUMPDEST PUSH0 DUP3 DUP3 MSTORE PUSH1 0x20 DUP3 ADD SWAP1 POP SWAP3 SWAP2 POP POP JUMP JUMPDEST PUSH32 0x4F6E6C7920426F622063616E2077697468647261772066756E64732100000000 PUSH0 DUP3 ADD MSTORE POP JUMP JUMPDEST PUSH0 PUSH2 0x63B PUSH1 0x1C DUP4 PUSH2 0x5F7 JUMP JUMPDEST SWAP2 POP PUSH2 0x646 DUP3 PUSH2 0x607 JUMP JUMPDEST PUSH1 0x20 DUP3 ADD SWAP1 POP SWAP2 SWAP1 POP JUMP JUMPDEST PUSH0 PUSH1 0x20 DUP3 ADD SWAP1 POP DUP2 DUP2 SUB PUSH0 DUP4 ADD MSTORE PUSH2 0x668 DUP2 PUSH2 0x62F JUMP JUMPDEST SWAP1 POP SWAP2 SWAP1 POP JUMP JUMPDEST PUSH32 0x436F6E7472616374206973206E6F742066756E64656421000000000000000000 PUSH0 DUP3 ADD MSTORE POP JUMP JUMPDEST PUSH0 PUSH2 0x6A3 PUSH1 0x17 DUP4 PUSH2 0x5F7 JUMP JUMPDEST SWAP2 POP PUSH2 0x6AE DUP3 PUSH2 0x66F JUMP JUMPDEST PUSH1 0x20 DUP3 ADD SWAP1 POP SWAP2 SWAP1 POP JUMP JUMPDEST PUSH0 PUSH1 0x20 DUP3 ADD SWAP1 POP DUP2 DUP2 SUB PUSH0 DUP4 ADD MSTORE PUSH2 0x6D0 DUP2 PUSH2 0x697 JUMP JUMPDEST SWAP1 POP SWAP2 SWAP1 POP JUMP JUMPDEST PUSH32 0x4E487B7100000000000000000000000000000000000000000000000000000000 PUSH0 MSTORE PUSH1 0x11 PUSH1 0x4 MSTORE PUSH1 0x24 PUSH0 REVERT JUMPDEST PUSH0 PUSH2 0x70E DUP3 PUSH2 0x53B JUMP JUMPDEST SWAP2 POP PUSH2 0x719 DUP4 PUSH2 0x53B JUMP JUMPDEST SWAP3 POP DUP3 DUP3 ADD SWAP1 POP DUP1 DUP3 GT ISZERO PUSH2 0x731 JUMPI PUSH2 0x730 PUSH2 0x6D7 JUMP JUMPDEST JUMPDEST SWAP3 SWAP2 POP POP JUMP JUMPDEST PUSH32 0x5769746864726177616C206E6F7420616C6C6F776564207965742E2057616974 PUSH0 DUP3 ADD MSTORE PUSH32 0x20666F72206D696E203120646179210000000000000000000000000000000000 PUSH1 0x20 DUP3 ADD MSTORE POP JUMP JUMPDEST PUSH0 PUSH2 0x791 PUSH1 0x2F DUP4 PUSH2 0x5F7 JUMP JUMPDEST SWAP2 POP PUSH2 0x79C DUP3 PUSH2 0x737 JUMP JUMPDEST PUSH1 0x40 DUP3 ADD SWAP1 POP SWAP2 SWAP1 POP JUMP JUMPDEST PUSH0 PUSH1 0x20 DUP3 ADD SWAP1 POP DUP2 DUP2 SUB PUSH0 DUP4 ADD MSTORE PUSH2 0x7BE DUP2 PUSH2 0x785 JUMP JUMPDEST SWAP1 POP SWAP2 SWAP1 POP JUMP JUMPDEST PUSH32 0x4E6F7420656E6F7567682066756E647320746F20776974686472617721000000 PUSH0 DUP3 ADD MSTORE POP JUMP JUMPDEST PUSH0 PUSH2 0x7F9 PUSH1 0x1D DUP4 PUSH2 0x5F7 JUMP JUMPDEST SWAP2 POP PUSH2 0x804 DUP3 PUSH2 0x7C5 JUMP JUMPDEST PUSH1 0x20 DUP3 ADD SWAP1 POP SWAP2 SWAP1 POP JUMP JUMPDEST PUSH0 PUSH1 0x20 DUP3 ADD SWAP1 POP DUP2 DUP2 SUB PUSH0 DUP4 ADD MSTORE PUSH2 0x826 DUP2 PUSH2 0x7ED JUMP JUMPDEST SWAP1 POP SWAP2 SWAP1 POP JUMP JUMPDEST PUSH0 DUP2 SWAP1 POP SWAP3 SWAP2 POP POP JUMP JUMPDEST POP JUMP JUMPDEST PUSH0 PUSH2 0x845 PUSH0 DUP4 PUSH2 0x82D JUMP JUMPDEST SWAP2 POP PUSH2 0x850 DUP3 PUSH2 0x837 JUMP JUMPDEST PUSH0 DUP3 ADD SWAP1 POP SWAP2 SWAP1 POP JUMP JUMPDEST PUSH0 PUSH2 0x864 DUP3 PUSH2 0x83A JUMP JUMPDEST SWAP2 POP DUP2 SWAP1 POP SWAP2 SWAP1 POP JUMP JUMPDEST PUSH32 0x4661696C656420746F2073656E6420457468657265756D000000000000000000 PUSH0 DUP3 ADD MSTORE POP JUMP JUMPDEST PUSH0 PUSH2 0x8A2 PUSH1 0x17 DUP4 PUSH2 0x5F7 JUMP JUMPDEST SWAP2 POP PUSH2 0x8AD DUP3 PUSH2 0x86E JUMP JUMPDEST PUSH1 0x20 DUP3 ADD SWAP1 POP SWAP2 SWAP1 POP JUMP JUMPDEST PUSH0 PUSH1 0x20 DUP3 ADD SWAP1 POP DUP2 DUP2 SUB PUSH0 DUP4 ADD MSTORE PUSH2 0x8CF DUP2 PUSH2 0x896 JUMP JUMPDEST SWAP1 POP SWAP2 SWAP1 POP JUMP JUMPDEST PUSH32 0x416C72656164792066756E6465642074686520636F6E74726163742100000000 PUSH0 DUP3 ADD MSTORE POP JUMP JUMPDEST PUSH0 PUSH2 0x90A PUSH1 0x1C DUP4 PUSH2 0x5F7 JUMP JUMPDEST SWAP2 POP PUSH2 0x915 DUP3 PUSH2 0x8D6 JUMP JUMPDEST PUSH1 0x20 DUP3 ADD SWAP1 POP SWAP2 SWAP1 POP JUMP JUMPDEST PUSH0 PUSH1 0x20 DUP3 ADD SWAP1 POP DUP2 DUP2 SUB PUSH0 DUP4 ADD MSTORE PUSH2 0x937 DUP2 PUSH2 0x8FE JUMP JUMPDEST SWAP1 POP SWAP2 SWAP1 POP JUMP JUMPDEST PUSH32 0x4465706F73697420616D6F756E74206E6F742065786163746C7920302E303031 PUSH0 DUP3 ADD MSTORE PUSH32 0x2045544821000000000000000000000000000000000000000000000000000000 PUSH1 0x20 DUP3 ADD MSTORE POP JUMP JUMPDEST PUSH0 PUSH2 0x998 PUSH1 0x25 DUP4 PUSH2 0x5F7 JUMP JUMPDEST SWAP2 POP PUSH2 0x9A3 DUP3 PUSH2 0x93E JUMP JUMPDEST PUSH1 0x40 DUP3 ADD SWAP1 POP SWAP2 SWAP1 POP JUMP JUMPDEST PUSH0 PUSH1 0x20 DUP3 ADD SWAP1 POP DUP2 DUP2 SUB PUSH0 DUP4 ADD MSTORE PUSH2 0x9C5 DUP2 PUSH2 0x98C JUMP JUMPDEST SWAP1 POP SWAP2 SWAP1 POP JUMP INVALID LOG2 PUSH5 0x6970667358 0x22 SLT KECCAK256 SWAP3 0xCC 0xCC PUSH30 0x4939938829631F8E98356C063C456A240AB5E4B20B51BAC2F81BFC2A6473 PUSH16 0x6C634300081600330000000000000000 "
				},
				"gasEstimates": {
					"creation": {
						"codeDepositCost": "512400",
						"executionCost": "547",
						"totalCost": "512947"
					},
					"external": {
						"alice()": "2571",
						"bob()": "395",
						"deposit()": "72984",
						"depositAmount()": "370",
						"depositTime()": "2492",
						"getBalance()": "335",
						"isFunded()": "2466",
						"withdraw()": "infinite"
					}
				},
				"methodIdentifiers": {
					"alice()": "fb47e3a2",
					"bob()": "c09cec77",
					"deposit()": "d0e30db0",
					"depositAmount()": "419759f5",
					"depositTime()": "5e8a626e",
					"getBalance()": "12065fe0",
					"isFunded()": "7c654303",
					"withdraw()": "3ccfd60b"
				}
			},
			"storageLayout": {
				"storage": [
					{
						"astId": 4,
						"contract": "contracts/Escrow.sol:harshEscrowNYU",
						"label": "alice",
						"offset": 0,
						"slot": "0",
						"type": "t_address_payable"
					},
					{
						"astId": 12,
						"contract": "contracts/Escrow.sol:harshEscrowNYU",
						"label": "depositTime",
						"offset": 0,
						"slot": "1",
						"type": "t_uint256"
					},
					{
						"astId": 14,
						"contract": "contracts/Escrow.sol:harshEscrowNYU",
						"label": "isFunded",
						"offset": 0,
						"slot": "2",
						"type": "t_bool"
					}
				],
				"types": {
					"t_address_payable": {
						"encoding": "inplace",
						"label": "address payable",
						"numberOfBytes": "20"
					},
					"t_bool": {
						"encoding": "inplace",
						"label": "bool",
						"numberOfBytes": "1"
					},
					"t_uint256": {
						"encoding": "inplace",
						"label": "uint256",
						"numberOfBytes": "32"
					}
				}
			},
			"userdoc": {
				"kind": "user",
				"methods": {},
				"notice": "Alice can deposit 0.001 ETH and a user (Bob) can withdraw after 1 day For testing, 1 min",
				"version": 1
			}
		}
	}
}